{
  "transactions": [
    {
      "hash": "0xf86cf8de7c888b50689f57ec31f160b8e502f3eda957676b104a17515306c082",
      "transactionType": "CREATE",
      "contractName": "ForceSend",
      "contractAddress": "0x395f6b6bf9c3a362b6769bc697978bfbb3af238a",
      "function": null,
      "arguments": null,
      "transaction": {
        "from": "0x6bee0885a5d7c621215ad773a8c692a1bd16aa60",
        "gas": "0xea2b4",
        "value": "0x2540be400",
        "input": "0x608060405261010d806100115f395ff3fe6080604052348015600e575f5ffd5b50600436106025575f3560e01c8062f55d9d146029575b5f5ffd5b603f6004803603810190603b919060b1565b6041565b005b8073ffffffffffffffffffffffffffffffffffffffff16ff5b5f5ffd5b5f73ffffffffffffffffffffffffffffffffffffffff82169050919050565b5f608582605e565b9050919050565b609381607d565b8114609c575f5ffd5b50565b5f8135905060ab81608c565b92915050565b5f6020828403121560c35760c2605a565b5b5f60ce84828501609f565b9150509291505056fea2646970667358221220f89db558282d12a93e7c5f7513b6c34a7db4b0cb6ce7116db6955e2bb4e0d12164736f6c63430008210033",
        "nonce": "0x5f",
        "chainId": "0x190f1b41"
      },
      "additionalContracts": [],
      "isFixedGasLimit": false
    },
    {
      "hash": "0x89a1199779fc0053e3a481862da4e799130dac0bb98251a8193d27001b824667",
      "transactionType": "CALL",
      "contractName": "ForceSend",
      "contractAddress": "0x395f6b6bf9c3a362b6769bc697978bfbb3af238a",
      "function": "destroy(address)",
      "arguments": [
        "0x8Bf5c836346Be9c0e7e8c3eA24271e8C6CB26e6E"
      ],
      "transaction": {
        "from": "0x6bee0885a5d7c621215ad773a8c692a1bd16aa60",
        "to": "0x395f6b6bf9c3a362b6769bc697978bfbb3af238a",
        "gas": "0x54d",
        "value": "0x0",
        "input": "0x00f55d9d0000000000000000000000008bf5c836346be9c0e7e8c3ea24271e8c6cb26e6e",
        "nonce": "0x60",
        "chainId": "0x190f1b41"
      },
      "additionalContracts": [],
      "isFixedGasLimit": false
    }
  ],
  "receipts": [
    {
      "status": "0x1",
      "cumulativeGasUsed": "0x0",
      "logs": [],
      "logsBloom": "0x00000000000000000000000000000000000000000000000000000000000000000000000000000000000000000000000000000000000000000000000000000000000000000000000000000000000000000000000000000000000000000000000000000000000000000000000000000000000000000000000000000000000000000000000000000000000000000000000000000000000000000000000000000000000000000000000000000000000000000000000000000000000000000000000000000000000000000000000000000000000000000000000000000000000000000000000000000000000000000000000000000000000000000000000000000000",
      "type": "0x2",
      "transactionHash": "0xf86cf8de7c888b50689f57ec31f160b8e502f3eda957676b104a17515306c082",
      "transactionIndex": "0x3",
      "blockHash": "0x544d36d5132ed74ffa737017c9cee5a5c7bc1894b383e959f21f193e394eb8b3",
      "blockNumber": "0x64799e",
      "gasUsed": "0xb41e3",
      "effectiveGasPrice": "0xe8d4a51000",
      "from": "0x6bee0885a5d7c621215ad773a8c692a1bd16aa60",
      "to": null,
      "contractAddress": "0x395f6b6bf9c3a362b6769bc697978bfbb3af238a"
    },
    {
      "status": "0x1",
      "cumulativeGasUsed": "0x0",
      "logs": [],
      "logsBloom": "0x00000000000000000000000000000000000000000000000000000000000000000000000000000000000000000000000000000000000000000000000000000000000000000000000000000000000000000000000000000000000000000000000000000000000000000000000000000000000000000000000000000000000000000000000000000000000000000000000000000000000000000000000000000000000000000000000000000000000000000000000000000000000000000000000000000000000000000000000000000000000000000000000000000000000000000000000000000000000000000000000000000000000000000000000000000000",
      "type": "0x2",
      "transactionHash": "0x89a1199779fc0053e3a481862da4e799130dac0bb98251a8193d27001b824667",
      "transactionIndex": "0x2",
      "blockHash": "0x9445aa454c5635db21d61a2d223cb379365f5cb43d4a5f87022601791feacd0d",
      "blockNumber": "0x6479a0",
      "gasUsed": "0x41b",
      "effectiveGasPrice": "0xe8d4a51000",
      "from": "0x6bee0885a5d7c621215ad773a8c692a1bd16aa60",
      "to": "0x395f6b6bf9c3a362b6769bc697978bfbb3af238a",
      "contractAddress": null
    }
  ],
  "libraries": [],
  "pending": [],
  "returns": {},
  "timestamp": 1773936743982,
  "chain": 420420417,
  "commit": "4463720"
}