{
  "transactions": [
    {
      "hash": "0x6a69e15bfc296b02f454dd177c66b8c95cf53b8b5deafe6bc67b2a365ae1f1a9",
      "transactionType": "CREATE",
      "contractName": "ForceSend",
      "contractAddress": "0xb464ef6c03a0f716e8f861c1444bfa93a519ea0d",
      "function": null,
      "arguments": null,
      "transaction": {
        "from": "0x6bee0885a5d7c621215ad773a8c692a1bd16aa60",
        "gas": "0x6a285",
        "value": "0x5af3107a4000",
        "input": "0x608060405261010d806100115f395ff3fe6080604052348015600e575f5ffd5b50600436106025575f3560e01c8062f55d9d146029575b5f5ffd5b603f6004803603810190603b919060b1565b6041565b005b8073ffffffffffffffffffffffffffffffffffffffff16ff5b5f5ffd5b5f73ffffffffffffffffffffffffffffffffffffffff82169050919050565b5f608582605e565b9050919050565b609381607d565b8114609c575f5ffd5b50565b5f8135905060ab81608c565b92915050565b5f6020828403121560c35760c2605a565b5b5f60ce84828501609f565b9150509291505056fea2646970667358221220f89db558282d12a93e7c5f7513b6c34a7db4b0cb6ce7116db6955e2bb4e0d12164736f6c63430008210033",
        "nonce": "0x61",
        "chainId": "0x190f1b41"
      },
      "additionalContracts": [],
      "isFixedGasLimit": false
    },
    {
      "hash": "0x964fd53bd96c5d5c85928bfd9770a28a4a6f8d5e88537dd762dafd673e73638f",
      "transactionType": "CALL",
      "contractName": "ForceSend",
      "contractAddress": "0xb464ef6c03a0f716e8f861c1444bfa93a519ea0d",
      "function": "destroy(address)",
      "arguments": [
        "0x8Bf5c836346Be9c0e7e8c3eA24271e8C6CB26e6E"
      ],
      "transaction": {
        "from": "0x6bee0885a5d7c621215ad773a8c692a1bd16aa60",
        "to": "0xb464ef6c03a0f716e8f861c1444bfa93a519ea0d",
        "gas": "0x54d",
        "value": "0x0",
        "input": "0x00f55d9d0000000000000000000000008bf5c836346be9c0e7e8c3ea24271e8c6cb26e6e",
        "nonce": "0x62",
        "chainId": "0x190f1b41"
      },
      "additionalContracts": [],
      "isFixedGasLimit": false
    }
  ],
  "receipts": [
    {
      "status": "0x1",
      "cumulativeGasUsed": "0x0",
      "logs": [],
      "logsBloom": "0x00000000000000000000000000000000000000000000000000000000000000000000000000000000000000000000000000000000000000000000000000000000000000000000000000000000000000000000000000000000000000000000000000000000000000000000000000000000000000000000000000000000000000000000000000000000000000000000000000000000000000000000000000000000000000000000000000000000000000000000000000000000000000000000000000000000000000000000000000000000000000000000000000000000000000000000000000000000000000000000000000000000000000000000000000000000",
      "type": "0x2",
      "transactionHash": "0x6a69e15bfc296b02f454dd177c66b8c95cf53b8b5deafe6bc67b2a365ae1f1a9",
      "transactionIndex": "0x3",
      "blockHash": "0x707bb152d4fded079c6e975affc3bda319abc92005c0ea2d8996ad38f65e11f2",
      "blockNumber": "0x6479f2",
      "gasUsed": "0x51a5c",
      "effectiveGasPrice": "0xe8d4a51000",
      "from": "0x6bee0885a5d7c621215ad773a8c692a1bd16aa60",
      "to": null,
      "contractAddress": "0xb464ef6c03a0f716e8f861c1444bfa93a519ea0d"
    },
    {
      "status": "0x1",
      "cumulativeGasUsed": "0x0",
      "logs": [],
      "logsBloom": "0x00000000000000000000000000000000000000000000000000000000000000000000000000000000000000000000000000000000000000000000000000000000000000000000000000000000000000000000000000000000000000000000000000000000000000000000000000000000000000000000000000000000000000000000000000000000000000000000000000000000000000000000000000000000000000000000000000000000000000000000000000000000000000000000000000000000000000000000000000000000000000000000000000000000000000000000000000000000000000000000000000000000000000000000000000000000",
      "type": "0x2",
      "transactionHash": "0x964fd53bd96c5d5c85928bfd9770a28a4a6f8d5e88537dd762dafd673e73638f",
      "transactionIndex": "0x2",
      "blockHash": "0xb6a37e5e1c3093a975c7f9385bb323d27e8db7dfb70ca2d236245eab9e33727e",
      "blockNumber": "0x6479f3",
      "gasUsed": "0x41b",
      "effectiveGasPrice": "0xe8d4a51000",
      "from": "0x6bee0885a5d7c621215ad773a8c692a1bd16aa60",
      "to": "0xb464ef6c03a0f716e8f861c1444bfa93a519ea0d",
      "contractAddress": null
    }
  ],
  "libraries": [],
  "pending": [],
  "returns": {},
  "timestamp": 1773936970281,
  "chain": 420420417,
  "commit": "4463720"
}