{
  "transactions": [
    {
      "hash": "0x6b705ef0ab2584ae7370ac2176991606545e2f659fc9ca2cfaec3b740bb6c8e0",
      "transactionType": "CREATE",
      "contractName": "RiskOracle",
      "contractAddress": "0x925287c7f2bc699a7874fe66aacc95da432094b3",
      "function": null,
      "arguments": null,
      "transaction": {
        "from": "0x6bee0885a5d7c621215ad773a8c692a1bd16aa60",
        "gas": "0xf8c31",
        "value": "0x0",
        "input": "0x6080604052348015600e575f5ffd5b503360015f6101000a81548173ffffffffffffffffffffffffffffffffffffffff021916908373ffffffffffffffffffffffffffffffffffffffff16021790555061066f8061005c5f395ff3fe608060405234801561000f575f5ffd5b506004361061003f575f3560e01c80637ba53285146100435780638da5cb5b14610073578063fb61e6bf14610091575b5f5ffd5b61005d600480360381019061005891906103b3565b6100c1565b60405161006a91906103f6565b60405180910390f35b61007b6100da565b604051610088919061044e565b60405180910390f35b6100ab60048036038101906100a69190610491565b6100ff565b6040516100b891906103f6565b60405180910390f35b5f5f5f8381526020019081526020015f20549050919050565b60015f9054906101000a900473ffffffffffffffffffffffffffffffffffffffff1681565b5f60015f9054906101000a900473ffffffffffffffffffffffffffffffffffffffff1673ffffffffffffffffffffffffffffffffffffffff163373ffffffffffffffffffffffffffffffffffffffff1614610186576040517f82b4290000000000000000000000000000000000000000000000000000000000815260040160405180910390fd5b5f606460286101af60646127106064896101a09190610535565b6101aa91906105a3565b610341565b6101b99190610535565b6101c391906105a3565b90505f606460236101ef60646298968060648b6101e09190610535565b6101ea91906105a3565b610364565b6101f99190610535565b61020391906105a3565b90505f6064600f61022d606460b460648a61021e9190610535565b61022891906105a3565b610364565b6102379190610535565b61024191906105a3565b90505f6107d0891161025657600a90506102b4565b6127108910610267575f90506102b3565b6064600a61029c6064611f4060646107d08f61028391906105d3565b61028d9190610535565b61029791906105a3565b610341565b6102a69190610535565b6102b091906105a3565b90505b5b5f6102e16064838587896102c89190610606565b6102d29190610606565b6102dc9190610606565b610364565b9050805f5f8d81526020019081526020015f20819055508a7f15907985160153b465ed9b1d8f4d24b98b179ec25bf0c58b307711a95b7efde98260405161032891906103f6565b60405180910390a2809550505050505095945050505050565b5f81831161034f575f61035c565b818361035b91906105d3565b5b905092915050565b5f8183106103725781610374565b825b905092915050565b5f5ffd5b5f819050919050565b61039281610380565b811461039c575f5ffd5b50565b5f813590506103ad81610389565b92915050565b5f602082840312156103c8576103c761037c565b5b5f6103d58482850161039f565b91505092915050565b5f819050919050565b6103f0816103de565b82525050565b5f6020820190506104095f8301846103e7565b92915050565b5f73ffffffffffffffffffffffffffffffffffffffff82169050919050565b5f6104388261040f565b9050919050565b6104488161042e565b82525050565b5f6020820190506104615f83018461043f565b92915050565b610470816103de565b811461047a575f5ffd5b50565b5f8135905061048b81610467565b92915050565b5f5f5f5f5f60a086880312156104aa576104a961037c565b5b5f6104b78882890161039f565b95505060206104c88882890161047d565b94505060406104d98882890161047d565b93505060606104ea8882890161047d565b92505060806104fb8882890161047d565b9150509295509295909350565b7f4e487b71000000000000000000000000000000000000000000000000000000005f52601160045260245ffd5b5f61053f826103de565b915061054a836103de565b9250828202610558816103de565b9150828204841483151761056f5761056e610508565b5b5092915050565b7f4e487b71000000000000000000000000000000000000000000000000000000005f52601260045260245ffd5b5f6105ad826103de565b91506105b8836103de565b9250826105c8576105c7610576565b5b828204905092915050565b5f6105dd826103de565b91506105e8836103de565b9250828203905081811115610600576105ff610508565b5b92915050565b5f610610826103de565b915061061b836103de565b925082820190508082111561063357610632610508565b5b9291505056fea2646970667358221220fa69ff6d4a5fa2aa7ee1e88344c23ff2a0b39b62e21e1cf874cff64723d5be1764736f6c63430008210033",
        "nonce": "0x9",
        "chainId": "0x190f1b41"
      },
      "additionalContracts": [],
      "isFixedGasLimit": false
    },
    {
      "hash": "0xfeb67076859f445f850a1c3660e3a7461f47b8ca2ad5187c87c760a8572c6f84",
      "transactionType": "CALL",
      "contractName": "RiskOracle",
      "contractAddress": "0x925287c7f2bc699a7874fe66aacc95da432094b3",
      "function": "updateScore(bytes32,uint256,uint256,uint256,uint256)",
      "arguments": [
        "0x28f9cb741def117848906060ecc245d99a3b4e1b9afa666c115411a988c0de91",
        "2000",
        "1000000",
        "7000",
        "30"
      ],
      "transaction": {
        "from": "0x6bee0885a5d7c621215ad773a8c692a1bd16aa60",
        "to": "0x925287c7f2bc699a7874fe66aacc95da432094b3",
        "gas": "0x89f",
        "value": "0x0",
        "input": "0xfb61e6bf28f9cb741def117848906060ecc245d99a3b4e1b9afa666c115411a988c0de9100000000000000000000000000000000000000000000000000000000000007d000000000000000000000000000000000000000000000000000000000000f42400000000000000000000000000000000000000000000000000000000000001b58000000000000000000000000000000000000000000000000000000000000001e",
        "nonce": "0xa",
        "chainId": "0x190f1b41"
      },
      "additionalContracts": [],
      "isFixedGasLimit": false
    }
  ],
  "receipts": [
    {
      "status": "0x1",
      "cumulativeGasUsed": "0x0",
      "logs": [],
      "logsBloom": "0x00000000000000000000000000000000000000000000000000000000000000000000000000000000000000000000000000000000000000000000000000000000000000000000000000000000000000000000000000000000000000000000000000000000000000000000000000000000000000000000000000000000000000000000000000000000000000000000000000000000000000000000000000000000000000000000000000000000000000000000000000000000000000000000000000000000000000000000000000000000000000000000000000000000000000000000000000000000000000000000000000000000000000000000000000000000",
      "type": "0x2",
      "transactionHash": "0x6b705ef0ab2584ae7370ac2176991606545e2f659fc9ca2cfaec3b740bb6c8e0",
      "transactionIndex": "0x3",
      "blockHash": "0x76d755a222612b69c5f0c36829b56191c93de486b8a4d9426d5938fdc4d82928",
      "blockNumber": "0x63aed4",
      "gasUsed": "0xbf57a",
      "effectiveGasPrice": "0xe8d4a51000",
      "from": "0x6bee0885a5d7c621215ad773a8c692a1bd16aa60",
      "to": null,
      "contractAddress": "0x925287c7f2bc699a7874fe66aacc95da432094b3"
    },
    {
      "status": "0x1",
      "cumulativeGasUsed": "0x0",
      "logs": [
        {
          "address": "0x925287c7f2bc699a7874fe66aacc95da432094b3",
          "topics": [
            "0x15907985160153b465ed9b1d8f4d24b98b179ec25bf0c58b307711a95b7efde9",
            "0x28f9cb741def117848906060ecc245d99a3b4e1b9afa666c115411a988c0de91"
          ],
          "data": "0x000000000000000000000000000000000000000000000000000000000000001b",
          "blockHash": "0x6c374daa940a9c1651ffc3a330d075b7ca5dd5725aeab50249acc860755ec427",
          "blockNumber": "0x63aed6",
          "transactionHash": "0xfeb67076859f445f850a1c3660e3a7461f47b8ca2ad5187c87c760a8572c6f84",
          "transactionIndex": "0x2",
          "logIndex": "0x5",
          "removed": false
        }
      ],
      "logsBloom": "0x00000000000000200000000000000000000000000000000000000000000000000000000000000000000080000000000000000000000000000000000000000000000000000000008000000000000000000000000000000000000000000000000000000000000000000000000000000000000000000000000000000000000000000000000000000000000000000000000000000000000000000000000000000000000000000000000000000000000000000000000000000400000000002010000000000000000000000000008000000000000000000000000000000000000000000000000080000000000000000000000000000400000000000000000000000000",
      "type": "0x2",
      "transactionHash": "0xfeb67076859f445f850a1c3660e3a7461f47b8ca2ad5187c87c760a8572c6f84",
      "transactionIndex": "0x2",
      "blockHash": "0x6c374daa940a9c1651ffc3a330d075b7ca5dd5725aeab50249acc860755ec427",
      "blockNumber": "0x63aed6",
      "gasUsed": "0x57c0",
      "effectiveGasPrice": "0xe8d4a51000",
      "from": "0x6bee0885a5d7c621215ad773a8c692a1bd16aa60",
      "to": "0x925287c7f2bc699a7874fe66aacc95da432094b3",
      "contractAddress": null
    }
  ],
  "libraries": [],
  "pending": [],
  "returns": {},
  "timestamp": 1773814790692,
  "chain": 420420417,
  "commit": "a206126"
}